{
  "contractName": "initial",
  "abi": [
    {
      "constant": true,
      "inputs": [
        {
          "name": "",
          "type": "address"
        }
      ],
      "name": "AllCheckHash",
      "outputs": [
        {
          "name": "",
          "type": "string"
        }
      ],
      "payable": false,
      "stateMutability": "view",
      "type": "function"
    },
    {
      "constant": true,
      "inputs": [
        {
          "name": "",
          "type": "address"
        }
      ],
      "name": "GAllCheckHash",
      "outputs": [
        {
          "name": "",
          "type": "bool"
        }
      ],
      "payable": false,
      "stateMutability": "view",
      "type": "function"
    },
    {
      "constant": true,
      "inputs": [
        {
          "name": "",
          "type": "uint256"
        }
      ],
      "name": "LotNumber",
      "outputs": [
        {
          "name": "",
          "type": "int256"
        }
      ],
      "payable": false,
      "stateMutability": "view",
      "type": "function"
    },
    {
      "inputs": [],
      "payable": false,
      "stateMutability": "nonpayable",
      "type": "constructor"
    },
    {
      "anonymous": false,
      "inputs": [
        {
          "indexed": true,
          "name": "_owner",
          "type": "address"
        },
        {
          "indexed": false,
          "name": "CheckHash",
          "type": "string"
        }
      ],
      "name": "GHashEvent",
      "type": "event"
    },
    {
      "anonymous": false,
      "inputs": [
        {
          "indexed": true,
          "name": "_owner",
          "type": "address"
        },
        {
          "indexed": false,
          "name": "uname",
          "type": "string"
        }
      ],
      "name": "RegisterEvent",
      "type": "event"
    },
    {
      "anonymous": false,
      "inputs": [
        {
          "indexed": true,
          "name": "_ots",
          "type": "string"
        },
        {
          "indexed": false,
          "name": "lotnumber",
          "type": "int256"
        }
      ],
      "name": "DataIntoEntryGate",
      "type": "event"
    },
    {
      "constant": true,
      "inputs": [
        {
          "name": "_a",
          "type": "string"
        },
        {
          "name": "_b",
          "type": "string"
        }
      ],
      "name": "stringsEqual",
      "outputs": [
        {
          "name": "",
          "type": "bool"
        }
      ],
      "payable": false,
      "stateMutability": "pure",
      "type": "function"
    },
    {
      "constant": false,
      "inputs": [
        {
          "name": "chash",
          "type": "string"
        }
      ],
      "name": "addCheckHash",
      "outputs": [
        {
          "name": "",
          "type": "bool"
        }
      ],
      "payable": true,
      "stateMutability": "payable",
      "type": "function"
    },
    {
      "constant": true,
      "inputs": [],
      "name": "getGhash",
      "outputs": [
        {
          "name": "",
          "type": "string"
        }
      ],
      "payable": false,
      "stateMutability": "view",
      "type": "function"
    },
    {
      "constant": false,
      "inputs": [
        {
          "name": "uname",
          "type": "string"
        },
        {
          "name": "CheckGhash",
          "type": "string"
        },
        {
          "name": "actor",
          "type": "string"
        },
        {
          "name": "gender",
          "type": "string"
        },
        {
          "name": "password",
          "type": "string"
        }
      ],
      "name": "addMember",
      "outputs": [
        {
          "name": "",
          "type": "bool"
        }
      ],
      "payable": true,
      "stateMutability": "payable",
      "type": "function"
    },
    {
      "constant": false,
      "inputs": [
        {
          "name": "uname",
          "type": "string"
        },
        {
          "name": "password",
          "type": "string"
        }
      ],
      "name": "checkMember",
      "outputs": [
        {
          "name": "",
          "type": "uint256"
        },
        {
          "name": "",
          "type": "string"
        }
      ],
      "payable": true,
      "stateMutability": "payable",
      "type": "function"
    },
    {
      "constant": false,
      "inputs": [
        {
          "name": "lotnumber",
          "type": "int256"
        },
        {
          "name": "fname",
          "type": "string"
        },
        {
          "name": "fots",
          "type": "string"
        },
        {
          "name": "fmandi",
          "type": "string"
        },
        {
          "name": "fstate",
          "type": "string"
        },
        {
          "name": "pname",
          "type": "string"
        },
        {
          "name": "pquality",
          "type": "string"
        },
        {
          "name": "pbs",
          "type": "int256"
        },
        {
          "name": "pnobag",
          "type": "int256"
        },
        {
          "name": "auctionstart",
          "type": "uint256"
        },
        {
          "name": "auctionend",
          "type": "uint256"
        }
      ],
      "name": "AddEntryGate",
      "outputs": [
        {
          "name": "",
          "type": "bool"
        }
      ],
      "payable": true,
      "stateMutability": "payable",
      "type": "function"
    },
    {
      "constant": false,
      "inputs": [
        {
          "name": "fots",
          "type": "string"
        }
      ],
      "name": "GetLotCount",
      "outputs": [
        {
          "name": "",
          "type": "uint256"
        }
      ],
      "payable": false,
      "stateMutability": "nonpayable",
      "type": "function"
    },
    {
      "constant": false,
      "inputs": [
        {
          "name": "lotnumber",
          "type": "int256"
        }
      ],
      "name": "ConfirmProductByFarmer",
      "outputs": [
        {
          "name": "",
          "type": "bool"
        }
      ],
      "payable": false,
      "stateMutability": "nonpayable",
      "type": "function"
    },
    {
      "constant": false,
      "inputs": [
        {
          "name": "lotnumber",
          "type": "int256"
        }
      ],
      "name": "RejectProductByFarmer",
      "outputs": [
        {
          "name": "",
          "type": "bool"
        }
      ],
      "payable": false,
      "stateMutability": "nonpayable",
      "type": "function"
    },
    {
      "constant": false,
      "inputs": [
        {
          "name": "index",
          "type": "uint256"
        }
      ],
      "name": "FarmerFetchProduct",
      "outputs": [
        {
          "name": "",
          "type": "int256"
        },
        {
          "name": "",
          "type": "string"
        },
        {
          "name": "",
          "type": "string"
        },
        {
          "name": "",
          "type": "string"
        },
        {
          "name": "",
          "type": "string"
        },
        {
          "name": "",
          "type": "int256"
        },
        {
          "name": "",
          "type": "int256"
        },
        {
          "name": "",
          "type": "int256"
        }
      ],
      "payable": false,
      "stateMutability": "nonpayable",
      "type": "function"
    },
    {
      "constant": false,
      "inputs": [],
      "name": "BidderFetchProduct",
      "outputs": [
        {
          "name": "",
          "type": "int256"
        },
        {
          "name": "",
          "type": "string"
        },
        {
          "name": "",
          "type": "string"
        },
        {
          "name": "",
          "type": "string"
        },
        {
          "name": "",
          "type": "string"
        },
        {
          "name": "",
          "type": "int256"
        },
        {
          "name": "",
          "type": "int256"
        },
        {
          "name": "",
          "type": "int256"
        },
        {
          "name": "",
          "type": "uint256"
        },
        {
          "name": "",
          "type": "uint256"
        }
      ],
      "payable": false,
      "stateMutability": "nonpayable",
      "type": "function"
    },
    {
      "constant": false,
      "inputs": [
        {
          "name": "lotnumber",
          "type": "int256"
        }
      ],
      "name": "GetProductByLotNumber",
      "outputs": [
        {
          "name": "",
          "type": "string"
        },
        {
          "name": "",
          "type": "string"
        },
        {
          "name": "",
          "type": "string"
        },
        {
          "name": "",
          "type": "int256"
        },
        {
          "name": "",
          "type": "uint256"
        },
        {
          "name": "",
          "type": "int256"
        },
        {
          "name": "",
          "type": "uint256"
        }
      ],
      "payable": false,
      "stateMutability": "nonpayable",
      "type": "function"
    },
    {
      "constant": false,
      "inputs": [
        {
          "name": "lotnumber",
          "type": "int256"
        }
      ],
      "name": "bid",
      "outputs": [
        {
          "name": "",
          "type": "bool"
        }
      ],
      "payable": true,
      "stateMutability": "payable",
      "type": "function"
    },
    {
      "constant": false,
      "inputs": [
        {
          "name": "lotnumber",
          "type": "int256"
        }
      ],
      "name": "getMaxBid",
      "outputs": [
        {
          "name": "",
          "type": "uint256"
        }
      ],
      "payable": false,
      "stateMutability": "nonpayable",
      "type": "function"
    },
    {
      "constant": false,
      "inputs": [],
      "name": "getYourBid",
      "outputs": [
        {
          "name": "",
          "type": "uint256"
        }
      ],
      "payable": false,
      "stateMutability": "nonpayable",
      "type": "function"
    },
    {
      "constant": false,
      "inputs": [
        {
          "name": "lotnumber",
          "type": "int256"
        }
      ],
      "name": "getMaxBidder",
      "outputs": [
        {
          "name": "",
          "type": "address"
        }
      ],
      "payable": false,
      "stateMutability": "nonpayable",
      "type": "function"
    }
  ],
  "bytecode": "0x60806040526000805534801561001457600080fd5b506000600760003373ffffffffffffffffffffffffffffffffffffffff1673ffffffffffffffffffffffffffffffffffffffff16815260200190815260200160002060050160006101000a81548160ff02191690831515021790555061350a8061007f6000396000f300608060405260043610610107576000357c0100000000000000000000000000000000000000000000000000000000900463ffffffff16806306e1d0911461010c57806306f53e6d146101805780631157fff41461038657806313d199501461058a5780632e0c64d414610651578063304e0e6b146106965780633498f6ce146106ce57806346e2bf881461085a5780636d8562d3146108ea5780637b034247146109a657806387e563c0146109eb5780638b14a5c914610a2c5780638c8de64014610b4e578063a40d596a14610b79578063c8772e6e14610bd4578063ccc068c514610c41578063e4851efb14610e3f578063fb10f30414610e80578063fb723d591461101a575b600080fd5b610166600480360381019080803590602001908201803590602001908080601f0160208091040260200160405190810160405280939291908181526020018383808284378201915050505050509192919290505050611097565b604051808215151515815260200191505060405180910390f35b34801561018c57600080fd5b506101ab6004803603810190808035906020019092919050505061125a565b604051808981526020018060200180602001806020018060200188815260200187815260200186815260200185810385528c818151815260200191508051906020019080838360005b8381101561020f5780820151818401526020810190506101f4565b50505050905090810190601f16801561023c5780820380516001836020036101000a031916815260200191505b5085810384528b818151815260200191508051906020019080838360005b8381101561027557808201518184015260208101905061025a565b50505050905090810190601f1680156102a25780820380516001836020036101000a031916815260200191505b5085810383528a818151815260200191508051906020019080838360005b838110156102db5780820151818401526020810190506102c0565b50505050905090810190601f1680156103085780820380516001836020036101000a031916815260200191505b50858103825289818151815260200191508051906020019080838360005b83811015610341578082015181840152602081019050610326565b50505050905090810190601f16801561036e5780820380516001836020036101000a031916815260200191505b509c5050505050505050505050505060405180910390f35b61057060048036038101908080359060200190929190803590602001908201803590602001908080601f0160208091040260200160405190810160405280939291908181526020018383808284378201915050505050509192919290803590602001908201803590602001908080601f0160208091040260200160405190810160405280939291908181526020018383808284378201915050505050509192919290803590602001908201803590602001908080601f0160208091040260200160405190810160405280939291908181526020018383808284378201915050505050509192919290803590602001908201803590602001908080601f0160208091040260200160405190810160405280939291908181526020018383808284378201915050505050509192919290803590602001908201803590602001908080601f0160208091040260200160405190810160405280939291908181526020018383808284378201915050505050509192919290803590602001908201803590602001908080601f016020809104026020016040519081016040528093929190818152602001838380828437820191505050505050919291929080359060200190929190803590602001909291908035906020019092919080359060200190929190505050611bbc565b604051808215151515815260200191505060405180910390f35b34801561059657600080fd5b50610637600480360381019080803590602001908201803590602001908080601f0160208091040260200160405190810160405280939291908181526020018383808284378201915050505050509192919290803590602001908201803590602001908080601f0160208091040260200160405190810160405280939291908181526020018383808284378201915050505050509192919290505050611eb9565b604051808215151515815260200191505060405180910390f35b34801561065d57600080fd5b5061067c60048036038101908080359060200190929190505050612009565b604051808215151515815260200191505060405180910390f35b6106b460048036038101908080359060200190929190505050612030565b604051808215151515815260200191505060405180910390f35b610840600480360381019080803590602001908201803590602001908080601f0160208091040260200160405190810160405280939291908181526020018383808284378201915050505050509192919290803590602001908201803590602001908080601f0160208091040260200160405190810160405280939291908181526020018383808284378201915050505050509192919290803590602001908201803590602001908080601f0160208091040260200160405190810160405280939291908181526020018383808284378201915050505050509192919290803590602001908201803590602001908080601f0160208091040260200160405190810160405280939291908181526020018383808284378201915050505050509192919290803590602001908201803590602001908080601f01602080910402602001604051908101604052809392919081815260200183838082843782019150505050505091929192905050506121d3565b604051808215151515815260200191505060405180910390f35b34801561086657600080fd5b5061086f61266c565b6040518080602001828103825283818151815260200191508051906020019080838360005b838110156108af578082015181840152602081019050610894565b50505050905090810190601f1680156108dc5780820380516001836020036101000a031916815260200191505b509250505060405180910390f35b3480156108f657600080fd5b5061092b600480360381019080803573ffffffffffffffffffffffffffffffffffffffff1690602001909291905050506127e2565b6040518080602001828103825283818151815260200191508051906020019080838360005b8381101561096b578082015181840152602081019050610950565b50505050905090810190601f1680156109985780820380516001836020036101000a031916815260200191505b509250505060405180910390f35b3480156109b257600080fd5b506109d160048036038101908080359060200190929190505050612892565b604051808215151515815260200191505060405180910390f35b3480156109f757600080fd5b50610a16600480360381019080803590602001909291905050506128b9565b6040518082815260200191505060405180910390f35b610acc600480360381019080803590602001908201803590602001908080601f0160208091040260200160405190810160405280939291908181526020018383808284378201915050505050509192919290803590602001908201803590602001908080601f01602080910402602001604051908101604052809392919081815260200183838082843782019150505050505091929192905050506128d6565b6040518083815260200180602001828103825283818151815260200191508051906020019080838360005b83811015610b12578082015181840152602081019050610af7565b50505050905090810190601f168015610b3f5780820380516001836020036101000a031916815260200191505b50935050505060405180910390f35b348015610b5a57600080fd5b50610b63612be2565b6040518082815260200191505060405180910390f35b348015610b8557600080fd5b50610bba600480360381019080803573ffffffffffffffffffffffffffffffffffffffff169060200190929190505050612c29565b604051808215151515815260200191505060405180910390f35b348015610be057600080fd5b50610bff60048036038101908080359060200190929190505050612c49565b604051808273ffffffffffffffffffffffffffffffffffffffff1673ffffffffffffffffffffffffffffffffffffffff16815260200191505060405180910390f35b348015610c4d57600080fd5b50610c56612c86565b604051808b8152602001806020018060200180602001806020018a815260200189815260200188815260200187815260200186815260200185810385528e818151815260200191508051906020019080838360005b83811015610cc6578082015181840152602081019050610cab565b50505050905090810190601f168015610cf35780820380516001836020036101000a031916815260200191505b5085810384528d818151815260200191508051906020019080838360005b83811015610d2c578082015181840152602081019050610d11565b50505050905090810190601f168015610d595780820380516001836020036101000a031916815260200191505b5085810383528c818151815260200191508051906020019080838360005b83811015610d92578082015181840152602081019050610d77565b50505050905090810190601f168015610dbf5780820380516001836020036101000a031916815260200191505b5085810382528b818151815260200191508051906020019080838360005b83811015610df8578082015181840152602081019050610ddd565b50505050905090810190601f168015610e255780820380516001836020036101000a031916815260200191505b509e50505050505050505050505050505060405180910390f35b348015610e4b57600080fd5b50610e6a60048036038101908080359060200190929190505050613105565b6040518082815260200191505060405180910390f35b348015610e8c57600080fd5b50610eab60048036038101908080359060200190929190505050613128565b6040518080602001806020018060200188815260200187815260200186815260200185815260200184810384528b818151815260200191508051906020019080838360005b83811015610f0b578082015181840152602081019050610ef0565b50505050905090810190601f168015610f385780820380516001836020036101000a031916815260200191505b5084810383528a818151815260200191508051906020019080838360005b83811015610f71578082015181840152602081019050610f56565b50505050905090810190601f168015610f9e5780820380516001836020036101000a031916815260200191505b50848103825289818151815260200191508051906020019080838360005b83811015610fd7578082015181840152602081019050610fbc565b50505050905090810190601f1680156110045780820380516001836020036101000a031916815260200191505b509a505050505050505050505060405180910390f35b34801561102657600080fd5b50611081600480360381019080803590602001908201803590602001908080601f01602080910402602001604051908101604052809392919081815260200183838082843782019150505050505091929192905050506133be565b6040518082815260200191505060405180910390f35b6000600960003373ffffffffffffffffffffffffffffffffffffffff1673ffffffffffffffffffffffffffffffffffffffff16815260200190815260200160002060009054906101000a900460ff161515156110f257600080fd5b81600860003373ffffffffffffffffffffffffffffffffffffffff1673ffffffffffffffffffffffffffffffffffffffff1681526020019081526020016000209080519060200190611145929190613439565b506001600960003373ffffffffffffffffffffffffffffffffffffffff1673ffffffffffffffffffffffffffffffffffffffff16815260200190815260200160002060006101000a81548160ff0219169083151502179055503373ffffffffffffffffffffffffffffffffffffffff167f504baa72f7e77f1095c361ce108f63d27e19ddb9164fa50fb1c48a7e5408b183836040518080602001828103825283818151815260200191508051906020019080838360005b838110156112175780820151818401526020810190506111fc565b50505050905090810190601f1680156112445780820380516001836020036101000a031916815260200191505b509250505060405180910390a260019050919050565b60006060806060806000806000806000600860003373ffffffffffffffffffffffffffffffffffffffff1673ffffffffffffffffffffffffffffffffffffffff16815260200190815260200160002091508a9050600b82604051808280546001816001161561010002031660029004801561130c5780601f106112ea57610100808354040283529182019161130c565b820191906000526020600020905b8154815290600101906020018083116112f8575b5050915050908152602001604051809103902060000180549050811015611aa857600a6000600b84604051808280546001816001161561010002031660029004801561138f5780601f1061136d57610100808354040283529182019161138f565b820191906000526020600020905b81548152906001019060200180831161137b575b50509150509081526020016040518091039020600001838154811015156113b257fe5b9060005260206000200154815260200190815260200160002060090154600a6000600b8560405180828054600181600116156101000203166002900480156114315780601f1061140f576101008083540402835291820191611431565b820191906000526020600020905b81548152906001019060200180831161141d575b505091505090815260200160405180910390206000018481548110151561145457fe5b90600052602060002001548152602001908152602001600020600301600a6000600b8660405180828054600181600116156101000203166002900480156114d25780601f106114b05761010080835404028352918201916114d2565b820191906000526020600020905b8154815290600101906020018083116114be575b50509150509081526020016040518091039020600001858154811015156114f557fe5b90600052602060002001548152602001908152602001600020600401600a6000600b8760405180828054600181600116156101000203166002900480156115735780601f10611551576101008083540402835291820191611573565b820191906000526020600020905b81548152906001019060200180831161155f575b505091505090815260200160405180910390206000018681548110151561159657fe5b90600052602060002001548152602001908152602001600020600501600a6000600b8860405180828054600181600116156101000203166002900480156116145780601f106115f2576101008083540402835291820191611614565b820191906000526020600020905b815481529060010190602001808311611600575b505091505090815260200160405180910390206000018781548110151561163757fe5b90600052602060002001548152602001908152602001600020600601600a6000600b8960405180828054600181600116156101000203166002900480156116b55780601f106116935761010080835404028352918201916116b5565b820191906000526020600020905b8154815290600101906020018083116116a1575b50509150509081526020016040518091039020600001888154811015156116d857fe5b9060005260206000200154815260200190815260200160002060080154600a6000600b8a60405180828054600181600116156101000203166002900480156117575780601f10611735576101008083540402835291820191611757565b820191906000526020600020905b815481529060010190602001808311611743575b505091505090815260200160405180910390206000018981548110151561177a57fe5b9060005260206000200154815260200190815260200160002060070154600b8960405180828054600181600116156101000203166002900480156117f55780601f106117d35761010080835404028352918201916117f5565b820191906000526020600020905b8154815290600101906020018083116117e1575b505091505090815260200160405180910390206000018881548110151561181857fe5b9060005260206000200154868054600181600116156101000203166002900480601f0160208091040260200160405190810160405280929190818152602001828054600181600116156101000203166002900480156118b85780601f1061188d576101008083540402835291602001916118b8565b820191906000526020600020905b81548152906001019060200180831161189b57829003601f168201915b50505050509650858054600181600116156101000203166002900480601f0160208091040260200160405190810160405280929190818152602001828054600181600116156101000203166002900480156119545780601f1061192957610100808354040283529160200191611954565b820191906000526020600020905b81548152906001019060200180831161193757829003601f168201915b50505050509550848054600181600116156101000203166002900480601f0160208091040260200160405190810160405280929190818152602001828054600181600116156101000203166002900480156119f05780601f106119c5576101008083540402835291602001916119f0565b820191906000526020600020905b8154815290600101906020018083116119d357829003601f168201915b50505050509450838054600181600116156101000203166002900480601f016020809104026020016040519081016040528092919081815260200182805460018160011615610100020316600290048015611a8c5780601f10611a6157610100808354040283529160200191611a8c565b820191906000526020600020905b815481529060010190602001808311611a6f57829003601f168201915b5050505050935099509950995099509950995099509950611baf565b6000806000808393506040805190810160405280600481526020017f6e756c6c000000000000000000000000000000000000000000000000000000008152509291906040805190810160405280600481526020017f6e756c6c000000000000000000000000000000000000000000000000000000008152509291906040805190810160405280600481526020017f6e756c6c000000000000000000000000000000000000000000000000000000008152509291906040805190810160405280600481526020017f6e756c6c00000000000000000000000000000000000000000000000000000000815250929190829250819150809050995099509950995099509950995099505b5050919395975091939597565b600060068c9080600181540180825580915050906001820390600052602060002001600090919290919091505550600b8a6040518082805190602001908083835b602083101515611c225780518252602082019150602081019050602083039250611bfd565b6001836020036101000a03801982511681845116808217855250505050505090500191505090815260200160405180910390206000018c90806001815401808255809150509060018203906000526020600020016000909192909190915055508a600a60008e81526020019081526020016000206000019080519060200190611cac929190613439565b5089600a60008e81526020019081526020016000206001019080519060200190611cd7929190613439565b5088600a60008e81526020019081526020016000206003019080519060200190611d02929190613439565b5087600a60008e81526020019081526020016000206004019080519060200190611d2d929190613439565b5086600a60008e81526020019081526020016000206005019080519060200190611d58929190613439565b5085600a60008e81526020019081526020016000206006019080519060200190611d83929190613439565b5084600a60008e81526020019081526020016000206007018190555083600a60008e8152602001908152602001600020600801819055506000600a60008e81526020019081526020016000206009018190555082600a60008e8152602001908152602001600020600a018190555081600a60008e8152602001908152602001600020600b0181905550896040518082805190602001908083835b602083101515611e425780518252602082019150602081019050602083039250611e1d565b6001836020036101000a03801982511681845116808217855250505050505090500191505060405180910390207f1ff313b898b7f5ec4599d1b098cabf756567e33197790d26a00a78b7099f7be18d6040518082815260200191505060405180910390a2600190509b9a5050505050505050505050565b6000606080600085925084915081518351141515611eda5760009350612000565b600090505b8251811015611ffb578181815181101515611ef657fe5b9060200101517f010000000000000000000000000000000000000000000000000000000000000090047f0100000000000000000000000000000000000000000000000000000000000000027effffffffffffffffffffffffffffffffffffffffffffffffffffffffffffff19168382815181101515611f7157fe5b9060200101517f010000000000000000000000000000000000000000000000000000000000000090047f0100000000000000000000000000000000000000000000000000000000000000027effffffffffffffffffffffffffffffffffffffffffffffffffffffffffffff1916141515611fee5760009350612000565b8080600101915050611edf565b600193505b50505092915050565b60006005600a60008481526020019081526020016000206009018190555060019050919050565b6000600a6000838152602001908152602001600020600a0154600381905550600a6000838152602001908152602001600020600b0154600481905550600d6000838152602001908152602001600020546000819055506003544211151561209657600080fd5b600454421015156120a657600080fd5b6000341115156120b557600080fd5b34600c60003373ffffffffffffffffffffffffffffffffffffffff1673ffffffffffffffffffffffffffffffffffffffff168152602001908152602001600020540160018190555060005460015411151561210f57600080fd5b600154600081905550600154600d600084815260200190815260200160002081905550600154600c60003373ffffffffffffffffffffffffffffffffffffffff1673ffffffffffffffffffffffffffffffffffffffff1681526020019081526020016000208190555033600e600084815260200190815260200160002060006101000a81548173ffffffffffffffffffffffffffffffffffffffff021916908373ffffffffffffffffffffffffffffffffffffffff16021790555060019050919050565b6000600760003373ffffffffffffffffffffffffffffffffffffffff1673ffffffffffffffffffffffffffffffffffffffff16815260200190815260200160002060050160009054906101000a900460ff1615151561223157600080fd5b612312600860003373ffffffffffffffffffffffffffffffffffffffff1673ffffffffffffffffffffffffffffffffffffffff1681526020019081526020016000208054600181600116156101000203166002900480601f0160208091040260200160405190810160405280929190818152602001828054600181600116156101000203166002900480156123075780601f106122dc57610100808354040283529160200191612307565b820191906000526020600020905b8154815290600101906020018083116122ea57829003601f168201915b505050505086611eb9565b151561231d57600080fd5b85600760003373ffffffffffffffffffffffffffffffffffffffff1673ffffffffffffffffffffffffffffffffffffffff1681526020019081526020016000206000019080519060200190612373929190613439565b5084600760003373ffffffffffffffffffffffffffffffffffffffff1673ffffffffffffffffffffffffffffffffffffffff16815260200190815260200160002060010190805190602001906123ca929190613439565b5083600760003373ffffffffffffffffffffffffffffffffffffffff1673ffffffffffffffffffffffffffffffffffffffff1681526020019081526020016000206004019080519060200190612421929190613439565b5082600760003373ffffffffffffffffffffffffffffffffffffffff1673ffffffffffffffffffffffffffffffffffffffff1681526020019081526020016000206002019080519060200190612478929190613439565b5081600760003373ffffffffffffffffffffffffffffffffffffffff1673ffffffffffffffffffffffffffffffffffffffff16815260200190815260200160002060030190805190602001906124cf929190613439565b506001600760003373ffffffffffffffffffffffffffffffffffffffff1673ffffffffffffffffffffffffffffffffffffffff16815260200190815260200160002060050160006101000a81548160ff02191690831515021790555033600760003373ffffffffffffffffffffffffffffffffffffffff1673ffffffffffffffffffffffffffffffffffffffff16815260200190815260200160002060050160016101000a81548173ffffffffffffffffffffffffffffffffffffffff021916908373ffffffffffffffffffffffffffffffffffffffff1602179055503373ffffffffffffffffffffffffffffffffffffffff167f2769f6028e34d1d2f6a7d82379707cc039c15c5f501e657476ad755f6b7fa0ed876040518080602001828103825283818151815260200191508051906020019080838360005b8381101561262557808201518184015260208101905061260a565b50505050905090810190601f1680156126525780820380516001836020036101000a031916815260200191505b509250505060405180910390a26001905095945050505050565b606060011515600960003373ffffffffffffffffffffffffffffffffffffffff1673ffffffffffffffffffffffffffffffffffffffff16815260200190815260200160002060009054906101000a900460ff16151514156127a657600860003373ffffffffffffffffffffffffffffffffffffffff1673ffffffffffffffffffffffffffffffffffffffff1681526020019081526020016000208054600181600116156101000203166002900480601f01602080910402602001604051908101604052809291908181526020018280546001816001161561010002031660029004801561279a5780601f1061276f5761010080835404028352916020019161279a565b820191906000526020600020905b81548152906001019060200180831161277d57829003601f168201915b505050505090506127df565b6040805190810160405280600481526020017f6e756c6c0000000000000000000000000000000000000000000000000000000081525090505b90565b60086020528060005260406000206000915090508054600181600116156101000203166002900480601f01602080910402602001604051908101604052809291908181526020018280546001816001161561010002031660029004801561288a5780601f1061285f5761010080835404028352916020019161288a565b820191906000526020600020905b81548152906001019060200180831161286d57829003601f168201915b505050505081565b60006001600a60008481526020019081526020016000206009018190555060019050919050565b6000600d6000838152602001908152602001600020549050919050565b600060606129be600760003373ffffffffffffffffffffffffffffffffffffffff1673ffffffffffffffffffffffffffffffffffffffff1681526020019081526020016000206000018054600181600116156101000203166002900480601f0160208091040260200160405190810160405280929190818152602001828054600181600116156101000203166002900480156129b35780601f10612988576101008083540402835291602001916129b3565b820191906000526020600020905b81548152906001019060200180831161299657829003601f168201915b505050505085611eb9565b8015612aaa5750612aa9600760003373ffffffffffffffffffffffffffffffffffffffff1673ffffffffffffffffffffffffffffffffffffffff1681526020019081526020016000206003018054600181600116156101000203166002900480601f016020809104026020016040519081016040528092919081815260200182805460018160011615610100020316600290048015612a9e5780601f10612a7357610100808354040283529160200191612a9e565b820191906000526020600020905b815481529060010190602001808311612a8157829003601f168201915b505050505084611eb9565b5b15612b9b576000600760003373ffffffffffffffffffffffffffffffffffffffff1673ffffffffffffffffffffffffffffffffffffffff168152602001908152602001600020600401819150808054600181600116156101000203166002900480601f016020809104026020016040519081016040528092919081815260200182805460018160011615610100020316600290048015612b8b5780601f10612b6057610100808354040283529160200191612b8b565b820191906000526020600020905b815481529060010190602001808311612b6e57829003601f168201915b5050505050905091509150612bdb565b60018090506040805190810160405280600481526020017f6e756c6c00000000000000000000000000000000000000000000000000000000815250915091505b9250929050565b6000600c60003373ffffffffffffffffffffffffffffffffffffffff1673ffffffffffffffffffffffffffffffffffffffff16815260200190815260200160002054905090565b60096020528060005260406000206000915054906101000a900460ff1681565b6000600e600083815260200190815260200160002060009054906101000a900473ffffffffffffffffffffffffffffffffffffffff169050919050565b6000606080606080600080600080600080600090506006805490508110156130f757600a6000600683815481101515612cbb57fe5b9060005260206000200154815260200190815260200160002060090154600a6000600684815481101515612ceb57fe5b90600052602060002001548152602001908152602001600020600301600a6000600685815481101515612d1a57fe5b90600052602060002001548152602001908152602001600020600401600a6000600686815481101515612d4957fe5b90600052602060002001548152602001908152602001600020600501600a6000600687815481101515612d7857fe5b90600052602060002001548152602001908152602001600020600601600a6000600688815481101515612da757fe5b9060005260206000200154815260200190815260200160002060080154600a6000600689815481101515612dd757fe5b9060005260206000200154815260200190815260200160002060070154600688815481101515612e0357fe5b9060005260206000200154600a600060068b815481101515612e2157fe5b90600052602060002001548152602001908152602001600020600a0154600a600060068c815481101515612e5157fe5b90600052602060002001548152602001908152602001600020600b0154888054600181600116156101000203166002900480601f016020809104026020016040519081016040528092919081815260200182805460018160011615610100020316600290048015612f035780601f10612ed857610100808354040283529160200191612f03565b820191906000526020600020905b815481529060010190602001808311612ee657829003601f168201915b50505050509850878054600181600116156101000203166002900480601f016020809104026020016040519081016040528092919081815260200182805460018160011615610100020316600290048015612f9f5780601f10612f7457610100808354040283529160200191612f9f565b820191906000526020600020905b815481529060010190602001808311612f8257829003601f168201915b50505050509750868054600181600116156101000203166002900480601f01602080910402602001604051908101604052809291908181526020018280546001816001161561010002031660029004801561303b5780601f106130105761010080835404028352916020019161303b565b820191906000526020600020905b81548152906001019060200180831161301e57829003601f168201915b50505050509650858054600181600116156101000203166002900480601f0160208091040260200160405190810160405280929190818152602001828054600181600116156101000203166002900480156130d75780601f106130ac576101008083540402835291602001916130d7565b820191906000526020600020905b8154815290600101906020018083116130ba57829003601f168201915b505050505095509a509a509a509a509a509a509a509a509a509a506130f8565b5b5090919293949596979899565b60068181548110151561311457fe5b906000526020600020016000915090505481565b6060806060600080600080600a6000898152602001908152602001600020600301600a60008a8152602001908152602001600020600401600a60008b8152602001908152602001600020600501600a60008c815260200190815260200160002060070154600a60008d8152602001908152602001600020600a0154600a60008e815260200190815260200160002060080154600a60008f8152602001908152602001600020600b0154868054600181600116156101000203166002900480601f0160208091040260200160405190810160405280929190818152602001828054600181600116156101000203166002900480156132665780601f1061323b57610100808354040283529160200191613266565b820191906000526020600020905b81548152906001019060200180831161324957829003601f168201915b50505050509650858054600181600116156101000203166002900480601f0160208091040260200160405190810160405280929190818152602001828054600181600116156101000203166002900480156133025780601f106132d757610100808354040283529160200191613302565b820191906000526020600020905b8154815290600101906020018083116132e557829003601f168201915b50505050509550848054600181600116156101000203166002900480601f01602080910402602001604051908101604052809291908181526020018280546001816001161561010002031660029004801561339e5780601f106133735761010080835404028352916020019161339e565b820191906000526020600020905b81548152906001019060200180831161338157829003601f168201915b505050505094509650965096509650965096509650919395979092949650565b6000600b826040518082805190602001908083835b6020831015156133f857805182526020820191506020810190506020830392506133d3565b6001836020036101000a0380198251168184511680821785525050505050509050019150509081526020016040518091039020600001805490509050919050565b828054600181600116156101000203166002900490600052602060002090601f016020900481019282601f1061347a57805160ff19168380011785556134a8565b828001600101855582156134a8579182015b828111156134a757825182559160200191906001019061348c565b5b5090506134b591906134b9565b5090565b6134db91905b808211156134d75760008160009055506001016134bf565b5090565b905600a165627a7a723058202ac085888056ffcc652ae228919a2ef6d9d922f528ed22d0f1627718e51d729a0029",
  "source": "pragma solidity ^0.4.4;\r\n\r\ncontract initial {\r\n\r\n\r\n   /*==================================================STRUCTURES===========================================================*/\r\n    \r\n    struct Member {\r\n        string uname;\r\n        string checkGhash;\r\n        string gender;\r\n        string password;\r\n        string actor;\r\n        bool status;\r\n        address member_address;\r\n    }\r\n\r\n    struct EntryGate{\r\n        string FarmerName;\r\n        string FarmerOTS;\r\n        string FarmerAddress;\r\n        string FarmerMandi;\r\n        string FarmerState;\r\n        string ProductName;\r\n        string ProductQuality;\r\n        int ProductBagSize;\r\n        int ProductNoBags;\r\n        int status;\r\n        uint auctionstart;\r\n        uint auctionend;\r\n    }\r\n\r\n    struct ArrayLotNumber{\r\n        int[] FarmerLOTArray;\r\n    }\r\n\r\n    //=================================================STATIC VARIABLES===================================================*/\r\n    // Also remembering the max_bid and the max_bidder to easily determine the winner.\r\n    uint max_bid = 0;\r\n    uint bid_amount;\r\n    address creator;\r\n    uint auction_start;\r\n    uint auction_end;\r\n  \r\n    /*===================================================ARRAYS===========================================================*/\r\n    //List of all farmers\r\n    Member[] allMembers;\r\n    int[] public LotNumber;\r\n\r\n    /*===================================================MAPPINGS===========================================================*/\r\n    \r\n    //Mapping for address to Farmer deatails stored in structure\r\n    mapping(address => Member) private MemberAddress;\r\n    //Mappping for storing OTS \r\n    mapping(address => string) public AllCheckHash;\r\n    //Mapping for checking ony OTS issued for each user\r\n    mapping(address => bool) public GAllCheckHash;\r\n    //Mapping for lot number to data of entry gate(lot number to product details)\r\n    mapping(int => EntryGate) private FarmerEntryGate;\r\n    //Mapping for OTS to FarmerProduct's Lot Number so to store the Farmer's product in his database\r\n    mapping(string => ArrayLotNumber) FarmerLOTNo;\r\n    //Mapping for address to bid amount for each buyer\r\n    mapping (address => uint) bids;\r\n    //Mapping for lotnumber to respective max bid\r\n    mapping(int => uint) maxbid;\r\n    //Mapping for lotnumber to respective max bidder\r\n    mapping(int => address) max_bidder;\r\n\r\n   \r\n\r\n    /*====================================================EVENTS==============================================================*/\r\n    //Event for generaring OTS\r\n    event GHashEvent(\r\n        address indexed _owner,\r\n        string CheckHash\r\n    );\r\n    //Event for registering user\r\n    event RegisterEvent(\r\n        address indexed _owner,\r\n        string uname\r\n    );\r\n    //Event for adding entry gate data\r\n    event DataIntoEntryGate(\r\n       string indexed _ots,\r\n       int lotnumber\r\n    );\r\n\r\n    /*=====================================================MODIFIERS============================================================*/\r\n   \r\n   //For checking the status of OTS\r\n    modifier checkAllHash() {\r\n        require(!GAllCheckHash[msg.sender]);\r\n        _;\r\n    }\r\n\r\n    //For checking if member is already register or not\r\n    modifier checkReg() {\r\n        require(!MemberAddress[msg.sender].status);\r\n        _;\r\n    }\r\n    \r\n    /*=====================================================CONSTRUCTOR============================================================*/\r\n    constructor() public {\r\n        MemberAddress[msg.sender].status = false;\r\n        \r\n    }\r\n\r\n    /*=====================================================FUNCTIONS============================================================*/\r\n    \r\n    // internal function to compare strings \r\n    function stringsEqual(string memory _a, string memory _b) public pure returns (bool) {\r\n        bytes memory a = bytes(_a);\r\n        bytes memory b = bytes(_b);\r\n        if(a.length != b.length)\r\n            return false;\r\n        for (uint i=0; i < a.length; i++)\r\n        {\r\n            if(a[i] != b[i])\r\n                return false;\r\n        }\r\n        return true;\r\n    }\r\n\r\n  \r\n    //This function return unique hash to the farmer as prove of farmer\r\n    function addCheckHash(string chash) public payable checkAllHash returns(bool) {\r\n        AllCheckHash[msg.sender] = chash;\r\n        GAllCheckHash[msg.sender] = true;\r\n        emit  GHashEvent(msg.sender,chash);\r\n        return true;\r\n    }\r\n\r\n    function getGhash() public view returns(string) {\r\n        if(GAllCheckHash[msg.sender] == true)\r\n            return AllCheckHash[msg.sender];\r\n        return \"null\";  \r\n    }\r\n  \r\n    //function for adding farmer to the system\r\n    // return 6 if government does not approve it as farmer\r\n    // return 1 when it get overflowed\r\n    // return 0 on success\r\n    function addMember(string uname, string CheckGhash, string actor, string gender, string password) public payable checkReg returns(bool) {\r\n        //checking whether it is farmer otn not\r\n        require(stringsEqual(AllCheckHash[msg.sender],CheckGhash));\r\n       \r\n        MemberAddress[msg.sender].uname = uname;\r\n        MemberAddress[msg.sender].checkGhash = CheckGhash;\r\n        MemberAddress[msg.sender].actor = actor;\r\n        MemberAddress[msg.sender].gender = gender;\r\n        MemberAddress[msg.sender].password = password;\r\n        MemberAddress[msg.sender].status = true;\r\n        MemberAddress[msg.sender].member_address = msg.sender;\r\n        emit RegisterEvent(msg.sender,uname);\r\n        return true;\r\n      \r\n    }\r\n    \r\n    //function for checking the loging system\r\n    function checkMember(string uname, string password) public payable returns(uint, string) {\r\n        if(stringsEqual(MemberAddress[msg.sender].uname,uname) && stringsEqual(MemberAddress[msg.sender].password, password))\r\n        {\r\n            return (0, MemberAddress[msg.sender].actor);\r\n        }\r\n        return (1, \"null\");\r\n        \r\n    }\r\n\r\n    //--------FUNCTIONS FOR ENTRY GATE------//\r\n    \r\n    //Function for adding data of EntryGate\r\n    function AddEntryGate(int lotnumber, string fname, string fots, string fmandi, string fstate, string pname, string pquality, int pbs, int pnobag, uint auctionstart, uint auctionend) public payable returns(bool) {\r\n\r\n        LotNumber.push(lotnumber);\r\n\r\n        FarmerLOTNo[fots].FarmerLOTArray.push(lotnumber);\r\n      \r\n        FarmerEntryGate[lotnumber].FarmerName = fname;\r\n        FarmerEntryGate[lotnumber].FarmerOTS = fots;\r\n        FarmerEntryGate[lotnumber].FarmerMandi = fmandi;\r\n        FarmerEntryGate[lotnumber].FarmerState = fstate;\r\n        FarmerEntryGate[lotnumber].ProductName = pname;\r\n        FarmerEntryGate[lotnumber].ProductQuality = pquality;\r\n        FarmerEntryGate[lotnumber].ProductBagSize = pbs;\r\n        FarmerEntryGate[lotnumber].ProductNoBags = pnobag;\r\n        FarmerEntryGate[lotnumber].status = 0;\r\n        FarmerEntryGate[lotnumber].auctionstart = auctionstart;\r\n        FarmerEntryGate[lotnumber].auctionend = auctionend;\r\n\r\n        emit DataIntoEntryGate(fots, lotnumber);\r\n        return true;\r\n    }\r\n\r\n   //Function for  geting total count of LOTNUMBER of perticular farmer\r\n    function GetLotCount(string fots) public returns(uint) {\r\n        return FarmerLOTNo[fots].FarmerLOTArray.length;\r\n    }\r\n\r\n    //Function for changing status after farmer confirmed\r\n    function ConfirmProductByFarmer(int lotnumber) public returns(bool) {\r\n        FarmerEntryGate[lotnumber].status = 1;  \r\n        return true;\r\n    }\r\n\r\n    //Function for changing status after farmer rejected the product\r\n    function RejectProductByFarmer(int lotnumber) public returns(bool) {\r\n        FarmerEntryGate[lotnumber].status = 5;  \r\n        return true;\r\n    }\r\n    \r\n    //Function for returning product details to Farmer\r\n    function FarmerFetchProduct(uint index) public returns(int, string, string, string, string ,int, int, int) {\r\n\r\n        string ots1 = AllCheckHash[msg.sender];\r\n\r\n        for(uint i=index;i<FarmerLOTNo[ots1].FarmerLOTArray.length;i++)\r\n        {\r\n            return \r\n            (FarmerEntryGate[FarmerLOTNo[ots1].FarmerLOTArray[i]].status, \r\n            FarmerEntryGate[FarmerLOTNo[ots1].FarmerLOTArray[i]].FarmerMandi, \r\n            FarmerEntryGate[FarmerLOTNo[ots1].FarmerLOTArray[i]].FarmerState, \r\n            FarmerEntryGate[FarmerLOTNo[ots1].FarmerLOTArray[i]].ProductName,  \r\n            FarmerEntryGate[FarmerLOTNo[ots1].FarmerLOTArray[i]].ProductQuality, \r\n            FarmerEntryGate[FarmerLOTNo[ots1].FarmerLOTArray[i]].ProductNoBags, \r\n            FarmerEntryGate[FarmerLOTNo[ots1].FarmerLOTArray[i]].ProductBagSize, \r\n            FarmerLOTNo[ots1].FarmerLOTArray[i]);\r\n        }\r\n        \r\n        return (0,\"null\",\"null\",\"null\",\"null\",0,0,0);  \r\n    }\r\n    \r\n    //-----ENDING-----//\r\n\r\n\r\n    //------Function For Bidders--------//\r\n    function BidderFetchProduct() public returns(int, string, string, string, string ,int, int, int, uint, uint) {\r\n        \r\n        for(uint i=0;i<LotNumber.length;i++)\r\n        {\r\n            return (FarmerEntryGate[LotNumber[i]].status, \r\n            FarmerEntryGate[LotNumber[i]].FarmerMandi, \r\n            FarmerEntryGate[LotNumber[i]].FarmerState, \r\n            FarmerEntryGate[LotNumber[i]].ProductName,  \r\n            FarmerEntryGate[LotNumber[i]].ProductQuality, \r\n            FarmerEntryGate[LotNumber[i]].ProductNoBags, \r\n            FarmerEntryGate[LotNumber[i]].ProductBagSize, \r\n            LotNumber[i],\r\n            FarmerEntryGate[LotNumber[i]].auctionstart, \r\n            FarmerEntryGate[LotNumber[i]].auctionend);\r\n        }\r\n         \r\n    }\r\n\r\n    function GetProductByLotNumber(int lotnumber) public returns(string, string, string ,int, uint, int, uint) {\r\n        return ( \r\n            FarmerEntryGate[lotnumber].FarmerMandi, \r\n            FarmerEntryGate[lotnumber].FarmerState, \r\n            FarmerEntryGate[lotnumber].ProductName,  \r\n            FarmerEntryGate[lotnumber].ProductBagSize, \r\n            FarmerEntryGate[lotnumber].auctionstart,\r\n            FarmerEntryGate[lotnumber].ProductNoBags,  \r\n            FarmerEntryGate[lotnumber].auctionend);\r\n    }\r\n\r\n    //------ENDING------//\r\n\r\n\r\n    //------Function for Auction-------// \r\n\r\n    function bid(int lotnumber) public payable returns(bool) {\r\n        auction_start = FarmerEntryGate[lotnumber].auctionstart;\r\n        auction_end = FarmerEntryGate[lotnumber].auctionend;\r\n        //\r\n        max_bid = maxbid[lotnumber];\r\n        require(now>auction_start);\r\n        require(now<auction_end);\r\n        require(msg.value>0);\r\n        bid_amount = bids[msg.sender] + msg.value;\r\n        //\r\n        require(bid_amount>max_bid);\r\n        //\r\n        max_bid = bid_amount;\r\n        maxbid[lotnumber] = bid_amount;\r\n        bids[msg.sender] = bid_amount; \r\n        max_bidder[lotnumber] = msg.sender;\r\n        return  true;\r\n    }\r\n\r\n    function getMaxBid(int lotnumber) public returns(uint) {\r\n        return maxbid[lotnumber];\r\n    }\r\n\r\n    function getYourBid() public returns(uint) {\r\n        return bids[msg.sender];\r\n    }\r\n\r\n    function getMaxBidder(int lotnumber) public returns(address) {\r\n        return max_bidder[lotnumber];\r\n    }\r\n\r\n    //---ENDING------//\r\n\r\n\r\n}",
  "sourcePath": "C:\\Enam1\\contracts\\initial.sol",
  "compiler": {
    "name": "solc",
    "version": "0.4.24+commit.e67f0147.Emscripten.clang"
  },
  "schemaVersion": "2.0.1",
  "updatedAt": "2019-01-15T14:30:05.450Z"
}